:1000000000000120B9010000E5010000E501000049
:10001000E5010000E5010000E5010000E501000048
:10002000E5010000E5010000E5010000E501000038
:10003000E5010000E4010000E5010000E501000029
:10004000E5010000E5010000E5010000E501000018
:10005000E5010000E5010000E5010000E501000008
:10006000E5010000E5010000E5010000E5010000F8
:10007000E5010000E5010000E50100005114000069
:10008000E5010000E5010000E5010000E5010000D8
:10009000E5010000E5010000E5010000E5010000C8
:1000A000E5010000E5010000E5010000E5010000B8
:1000B000E5010000E5010000E5010000E5010000A8
:1000C000E5010000E5010000E5010000E501000098
:1000D000E5010000E5010000E5010000E501000088
:1000E000E5010000E5010000E5010000E501000078
:1000F000E5010000E5010000E501000010B5054C38
:10010000237833B9044B13B10448AFF300800123C3
:10011000237010BD7800002000000000481500008A
:1001200008B5034B1BB103490348AFF3008008BD7A
:10013000000000007C00002048150000A3F5803A74
:10014000704700BF174B002B08BF134B9D46FFF7AE
:10015000F5FF00218B460F461348144A121A01F08E
:10016000DBF90E4B002B00D098470D4B002B00D035
:1001700098470020002104000D000D48002802D0FF
:100180000C48AFF3008001F0A3F92000290001F032
:100190007DF901F089F900BF0000080000000000AF
:1001A0000000000000000120780000209C000020DA
:1001B0000000000000000000064880470649074A8A
:1001C000074B9A42BEBF51F8040B42F8040BF8E704
:1001D000FFF7B8FF8902000054150000000000205E
:1001E00078000020FEE700BF80B483B000AF1C4B56
:1001F000D3F8943003F00703023B032B1BD801A272
:1002000052F823F0250200001D0200001502000034
:100210002D020000134B1B687B6010E04FF400437D
:100220007B600CE0104B1B687B6008E00F4B1B6889
:100230005B087B6003E00D4B1B687B6000BF084BD5
:10024000D3F800311B0A03F01F0301337A68B2FBB5
:10025000F3F318460C37BD465DF8047B704700BFCA
:1002600000400E4004000020000000200800002094
:1002700080B400AF034B1B681846BD465DF8047B95
:10028000704700BF0000002080B400AF074B084A51
:100290009A60064BD3F88830044A43F47003C2F8DE
:1002A000883000BFBD465DF8047B704700ED00E07C
:1002B0000000000080B400AF4FF400431846BD4674
:1002C0005DF8047B704780B400AF4FF47A73184632
:1002D000BD465DF8047B704780B400AF034B1B68DC
:1002E0001846BD465DF8047B704700BF040000203F
:1002F00080B487B000AFF860B9607A60FB6803F142
:10030000424303F58013DA00BB6813449B007B6112
:100310007B697A681A6000BF1C37BD465DF8047BB4
:10032000704780B586B000AFF860B9607A6000F0C1
:100330003DFF7861FB681A68BB68DB431A40796847
:10034000BB680B401A43FB681A60786900F03FFFF6
:1003500000BF1837BD4680BD80B489B000AF78605B
:100360000B46FB701346BB70BB78002B04D01023E8
:100370007B616A4BBB6103E000237B61684BBB611F
:100380007B685B6BBA6913403B610023FB617B6850
:10039000644A934240F0BC80634BFB60FB78062BC1
:1003A00016DC002BC0F2A980062B00F2A68001A269
:1003B00052F823F0D70300000304000039040000C2
:1003C0006B040000FB040000FB040000A704000015
:1003D000812B79D091E0FB681B6803F4FE43FA6936
:1003E0001343FB61FB681B6803F00F03FA691343B7
:1003F000FB61FB681B6803F0F003FA691343FB61C0
:100400007EE0FB681B681B0E1B0203F4FE43FA69C7
:100410001343FB61FB681B681B0C03F00F03FA69B5
:100420001343FB61FB681B681B0D1B0103F0F0030A
:10043000FA691343FB6163E0FB6804331B6803F450
:10044000FE43FA691343FB61FB6804331B6803F046
:100450000F03FA691343FB61FB6804331B6803F065
:10046000F003FA691343FB614AE0FB6804331B683D
:100470001B0E1B0203F4FE43FA691343FB61FB6886
:1004800004331B681B0C03F00F03FA691343FB6171
:10049000FB6804331B681B0D1B0103F0F003FA69B2
:1004A0001343FB612CE0FB6808331B6803F00F0368
:1004B000FA691343FB61FB6808331B6803F0F00320
:1004C000FA691343FB611BE0FB6804331B6803F408
:1004D000FE43FA691343FB61FB6804331B6803F0B6
:1004E0000F03FA691343FB61FB6804331B6803F0D5
:1004F000F003FA691343FB6102E00023FB6100BFD4
:10050000FA697B699A403B691A437B685A6300E049
:1005100000BF2437BD465DF8047B7047FFFF0080B5
:100520000080FFFF002000401082E00F80B588B0FF
:1005300000AF786039603B68DB78FB76FB7E002B90
:1005400006D100212A4800F0F7F80346FB760EE0BA
:100550007B681B6803F08003002B08D1002124482E
:1005600000F0EAF800214FF4FA4000F0E5F87B686B
:100570000A229A603B681B781A063B689B781B042A
:1005800003F4FE031A43FB7E1B0203F4FE431343F2
:100590003A6852781343FB613B681B79002B03D008
:1005A000FB6943F01003FB617B68FA691A607868A5
:1005B0003B685B791A46C021FFF7B3FE7B681B6876
:1005C00003F08003802B0FD10A4B7B6100233B613A
:1005D000786900F0DDFAF8607B68074A934203D13E
:1005E000064800F0D5FA386100BF2037BD4680BD0F
:1005F0000024F400B80032000020004000B20400E3
:1006000080B584B000AF786039607B6802229A6060
:100610003B689B78002219467868FFF79DFE3B688F
:100620005B781A063B681B791B021A433B685B79AF
:100630001B041A433B68DB78DB001343FB603B6819
:10064000DB79002B03D0FB6843F00053FB603B6871
:100650001B7A002B03D0FB6843F00403FB603B686C
:100660009B79002B03D0FB6843F00203FB603B68DF
:100670005B7A002B03D0FB6843F00103FB603B680F
:100680001B79F32B0DD13B689B78002B09D13B687C
:100690005B78032B05D8FB6823F0706343F080631D
:1006A000FB603B689B785BB2002B04DAFB6843F08D
:1006B000E003FB6005E03B689B785B01FA6813434D
:1006C000FB607B68FA681A617B685B6923F4F2134C
:1006D00023F00703FB603B689B785BB2002B06DAD4
:1006E0003B689B7823F08003FA681343FB603B6808
:1006F0001B785B04FA681343FB603B68DB7A002BD2
:1007000003D0FB6843F48043FB607B68FA685A615E
:1007100078683B689B7A1A460221FFF7E9FD7B68FF
:10072000DB6FFB607B68D3F880307B68DB6800BFE1
:100730001037BD4680BD000080B584B000AF786042
:1007400039607B68164A934202D9154B7B6006E0FC
:100750007B68B3F5FA4F02D24FF4FA437B603B68F3
:10076000002B03D10F4800F013FA38603A687B6819
:1007700013445A1E7B68B2FBF3F3FB60FB68002B4B
:1007800002D0FB68013BFB60FB687F2B01D97F2314
:10079000FB60FB68DBB218461037BD4680BD00BF6A
:1007A0000024F4004041050080B582B000AF7860BD
:1007B0007B68002B08D10E4800F0EAF978607B686E
:1007C000002B01D101237B607B6803F5742303F2C6
:1007D0003F237B607B68074AA2FB03239B0C7B6063
:1007E0007B68DBB2013BDBB218460837BD4680BDF3
:1007F0004041050083DE1B4380B483B000AF7860C6
:1008000001227B6802FA03F318460C37BD465DF8F7
:10081000047B704780B487B000AFF860B9607A603D
:10082000FB6803F1424303F58013DA00BB6813440D
:100830009B007B617B697A681A6000BF1C37BD46EC
:100840005DF8047B7047000080B483B000AF054BB7
:100850001B687B607B6818460C37BD465DF8047BDF
:10086000704700BF0C00002080B582B000AFFFF7DA
:10087000BBFC7860064BD3F800311B0A03F01F0362
:1008800001337A6802FB03F318460837BD4680BD82
:1008900000400E4080B582B000AF0D4800F086FBEE
:1008A0000346FB70FB78072B05D0092B07D1FFF718
:1008B0009BFC786006E0FFF7C7FF786002E000234A
:1008C0007B6000BF7B6818460837BD4680BD00BF0F
:1008D00006000E0080B584B000AF78607B68002B06
:1008E0001CD11B4800F062FB0346FB7200BFFB7A81
:1008F000013B072B23D801A252F823F02109000065
:100900003F0900003F0900002F0900003F090000D7
:100910003F0900002709000037090000002312E00A
:100920000023FB600EE0FFF78FFFF8600AE0FFF79F
:100930009FFCF86006E0FFF797FFF86002E00023F5
:10094000FB6000BFFB6818461037BD4680BD00BF86
:10095000B800320090B585B000AF78600023BB606E
:100960007B683F4A93420BD07B683D4A934209D84B
:100970007B683C4A934203D07B683B4A934201E048
:1009800000BF00E000BF786800F010FB0346FB608A
:100990007B68334A93421AD07B68314A93421DD810
:1009A0007B68304A934204D07B682F4A934207D039
:1009B00014E02E4BD3F8803003F00703FB600EE009
:1009C0002A4BD3F8843003F00703FB6007E0274B82
:1009D000D3F8883003F00703FB6000E000BFFB683A
:1009E000052B34D801A252F823F000BF490A0000B9
:1009F000050A00000D0A0000250A0000150A000083
:100A00001D0A0000FFF756FCB86023E0FFF764FC06
:100A1000B8601FE0FFF757FCB8601BE0FFF74AFC27
:100A2000B86017E0FFF7E0FB0446104BD3F8003145
:100A30001B0E03F0010301331846FFF7DDFE0346EA
:100A4000B4FBF3F3BB6005E00023BB6002E00023CE
:100A5000BB6000BFBB6818461437BD4690BD00BFE1
:100A60000500240002001E000300200000400E408C
:100A700080B483B000AF78600A4BD3F8443103F000
:100A80000103002B08D100BF064BD3F840217B683F
:100A90001340002BF8D100E000BF0C37BD465DF8D5
:100AA000047B704700400E4080B582B000AF786094
:100AB000786800F0AFF90346013318460837BD46A1
:100AC00080BD000080B586B000AF78600B46FB703B
:100AD00000233B617B681B0A03F00F03013B092BDA
:100AE00044D801A252F823F0110B00001D0B0000A6
:100AF0006D0B00006D0B0000170B0000230B0000B6
:100B00002D0B00006D0B0000370B0000430B0000A5
:100B1000184B7B6118E0184B7B6115E0174B7B612C
:100B200012E0174B7B6101233B610DE0154B7B61AC
:100B300010233B6108E0144B7B614FF480333B6131
:100B400002E0124B7B6100BF7B681B0B03F01F03AD
:100B5000FB603B69002B02D03869FFF789FFFB7807
:100B60001A46F9687869FFF755FE00E000BF1837AC
:100B7000BD4680BD00400E40B0400E40C0400E401B
:100B8000E0400E40E8400E40F0400E4050410E4024
:100B900090B585B000AF78607B6803F47813B3F547
:100BA000781F00F01B81B3F5781F00F22281B3F5A6
:100BB000481F00F00E81B3F5481F00F21A81B3F50B
:100BC000401F00F0E580B3F5401F00F21281B3F53D
:100BD000381F00F0B680B3F5381F00F20A81B3F574
:100BE000101F00F0E980B3F5101F00F20281B3F589
:100BF000001F00F0B580B3F5001F00F2FA80B3F5D6
:100C0000F01F79D0B3F5F01F00F2F380B3F5D01FD9
:100C100000F0AB80B3F5D01F00F2EB80B3F5B01F4E
:100C20007DD0B3F5B01F00F2E480B3F5A01F68D00B
:100C3000B3F5A01F00F2DD80B3F5801F00F0C58082
:100C4000B3F5801F00F2D580B3F5602F00F0B980B6
:100C5000B3F5602F00F2CD80B3F5402F3DD0B3F552
:100C6000402F00F2C680B3F5202F23D0B3F5202FFC
:100C700000F2BF80B3F5802F0DD0B3F5802F00F2C6
:100C8000B880002B03D0B3F5003F17D0B1E0FFF7D9
:100C9000ABFAF860B0E0FFF7A7FAF860594BD3F869
:100CA0000C311B0AC3F308030133FA68B2FBF3F3F8
:100CB000FB60A1E0FFF798FAF8609DE0FFF794FA77
:100CC000F860504BD3F808311B0AC3F30803013313
:100CD000FA68B2FBF3F3FB608EE0FFF785FAF86089
:100CE000484BD3F814311B0A03F01F030133FA6891
:100CF000B2FBF3F3FB607FE04348FFF72BFEF860A5
:100D00007AE04248FFF726FEF8603E4BD3F83031D8
:100D100003F00303FA6822FA03F3FB606CE03A483D
:100D2000FFF718FEF860374BD3F8203103F00F03BC
:100D30001846FFF761FD0246FB68B3FBF2F3FB6068
:100D40005AE03148FFF706FEF8602E4BD3F8203109
:100D50001B0903F00303FA6822FA03F3FB604BE07C
:100D60002B48FFF7F7FDF86046E02948FFF7F2FD52
:100D7000F860244BD3F828311B0903F0030318460D
:100D8000FFF73AFD0246FB68B3FBF2F3FB6033E08A
:100D90001F48FFF7DFFDF8601A4BD3F828311B0A14
:100DA00003F0030304331846FFF726FD0246FB68F1
:100DB000B3FBF2F3FB601FE01448FFF7CBFDF860D4
:100DC0001AE0FFF767FDF86016E0FFF73DFDF860F9
:100DD00012E00020FFF77EFDF8600DE0FFF704FA57
:100DE00004467868FFF760FE0346B4FBF3F3FB604C
:100DF00002E00023FB6000BFFB6818461437BD46C5
:100E000090BD00BF00400E4002001E0005002400FF
:100E10000300200080B584B000AF78607B681B09B8
:100E200003F00F03BB60BB68013B092B00F2AA80F3
:100E300001A252F823F000BF610E0000710E000005
:100E4000810E0000A10E0000850F0000850F00003C
:100E5000B10E0000C10E0000110F0000670F00006E
:100E60004C4BD3F800311B0A03F01F03FB608CE0EE
:100E7000484BD3F814311B0A03F01F03FB6084E0D6
:100E8000444BD3F800311B0E03F00103FB60FB68F9
:100E900001331846FFF7B0FC0346013BFB6074E0EA
:100EA0003C4BD3F80C311B0AC3F30803FB606CE026
:100EB000384BD3F808311B0AC3F30803FB6064E026
:100EC0007B68354A934204D07B68344A93420DD004
:100ED0001AE0304BD3F8203103F00F03FB60F868C1
:100EE000FFF78AFC0346013BFB6010E0294BD3F877
:100EF00020311B0903F00303FB60F868FFF77CFC5B
:100F00000346013BFB6002E00023FB6000BF3CE0C6
:100F10007B68234A934204D07B68224A93420ED0D6
:100F20001DE01C4BD3F828311B0903F00303FB60C1
:100F3000F868FFF761FC0346013BFB6012E0154BCC
:100F4000D3F828311B0A03F00303FB60FB6804336A
:100F50001846FFF751FC0346013BFB6002E000230B
:100F6000FB6000BF11E07B680F4A934206D1094B3A
:100F7000D3F8303103F00303FB6002E00023FB6091
:100F800000BF02E00023FB6000BFFB68184610377B
:100F9000BD4680BD00400E408006160080162E0023
:100FA00090171A0090273000A009140080B485B073
:100FB00000AF78600123FB737B6803F00F03BB6015
:100FC000BB68013B072B00F2E58001A252F823F039
:100FD000F10F000047100000911000009511000073
:100FE000E31000002D1100009511000051110000C8
:100FF0006D4BD3F8943003F00703023B052B1ED84A
:1010000001A252F823F000BF2D10000027100000AD
:1010100021100000331000003F10000039100000C4
:101020000223FB730EE00323FB730BE00423FB732B
:1010300008E00B23FB7305E00C23FB7302E00523A0
:10104000FB7300BFA9E0584BD3F8803003F00703CF
:10105000013B042B18D801A252F823F071100000B4
:1010600077100000891000007D1000008310000040
:101070000323FB730BE00223FB7308E00A23FB73DB
:1010800005E00D23FB7302E00123FB7300BF84E046
:10109000454BD3F8843003F00703013B042B1CD8E5
:1010A00001A252F823F000BFBD100000C3100000E1
:1010B000CF100000C9100000D51000000323FB73FF
:1010C0000EE00223FB730BE00A23FB7308E0062308
:1010D000FB7305E00D23FB7302E00123FB7300BFEC
:1010E0005BE0314BD3F8883003F00703013B042B5E
:1010F00018D801A252F823F00D11000013110000BE
:1011000025110000191100001F1100000323FB73BB
:101110000BE00223FB7308E00A23FB7305E00D23B9
:10112000FB7302E00123FB7300BF36E01E4B1B6F15
:1011300003F00103002B04D0012B05D10923FB731D
:1011400005E00723FB7302E00123FB7300BF24E0EB
:10115000154BD3F85C3103F03003302B13D0302B18
:1011600014D8202B0CD0202B10D8002B02D0102B01
:1011700003D00BE00123FB730BE00723FB7308E0B4
:101180000423FB7305E00823FB7302E00123FB73D8
:1011900000BF02E00023FB7300BFFB7B184614373F
:1011A000BD465DF8047B704700400E4080B483B0BC
:1011B00000AFEFF310833B603B687B6072B600BF0B
:1011C0007B6818460C37BD465DF8047B704780B4D9
:1011D00083B000AF78607B68002B01D162B600BF9E
:1011E00000BF0C37BD465DF8047B704780B485B006
:1011F00000AF78601A4B5B69DBB29B00DBB203F097
:101200003C03FB73164B1B699B09DBB203F0030322
:10121000DAB2FB7B1343FB737B68FA7B9A70104B4B
:101220001B69DBB203F03F03DAB27B685A700C4BE8
:101230009B691B09DBB21B01FB73094BDB691B09B3
:10124000DBB203F00F03DAB2FB7B1343FB737B6863
:10125000FA7B1A7000BF1437BD465DF8047B7047F7
:10126000D0FF0FE080B483B000AF0346FB7197F965
:101270000730002B0BDBFB7903F01F02074997F9BE
:1012800007305B09012000FA02F241F8232000BF79
:101290000C37BD465DF8047B704700BF00E100E0FD
:1012A00080B483B000AF0346FB7197F90730002B81
:1012B0000CDBFB7903F01F02074997F907305B0944
:1012C000012000FA02F2603341F8232000BF0C37FE
:1012D000BD465DF8047B704700E100E080B582B058
:1012E00000AF154B01225A64134B1B68124A43F49A
:1012F000807313603B1D1846FFF778FF7B79012B45
:1013000002D83B79022B0CD90C4B4FF418721A609F
:101310000B4B0C4A1A600C4B0C4A1A600C4B0D4AD2
:101320001A600D4B1B680C4A43F4F843136000BF6E
:101330000837BD4680BD00BF00000E408C420E4005
:1013400090420E409A6F0500F0420E4018010004D2
:10135000F8420E4000843208A4310E4080B483B0BD
:1013600000AF78607B689B6C18460C37BD465DF813
:10137000047B704780B483B000AF786039607B68CD
:101380005A6C3B681A437B685A6400BF0C37BD46F1
:101390005DF8047B704780B483B000AF78600B4683
:1013A000FB70FA787B689A6000BF0C37BD465DF829
:1013B000047B704780B586B000AF01212148FFF75C
:1013C00081FB00233B7400237B741F23BB74002329
:1013D000FB7400233B7500237B753B1D00221A60C4
:1013E0005A609A60FF237B7200211748FFF7A4F927
:1013F0000346FB740020FFF7D7F90346BB740023B4
:10140000BB720123BB710023FB7103237B71492352
:101410003B7207F1100319460C48FFF787F83B1D94
:1014200019460A48FFF7ECF801210848FFF7A2FF28
:101430000F20FFF735FF0F20FFF714FF00BF18370D
:10144000BD4680BD00B204000024F400002000402E
:1014500080B500AF0A48FFF781FF0346094A1360D1
:10146000084B1B6840F6C41202FB03F31B0B064A31
:10147000136001210248FFF78EFF00BF80BD00BF4F
:1014800000200040940000209800002080B500AFAC
:10149000FFF724FFFFF78EFF01210248FFF77BFFD4
:1014A000FEE700BF0020004008B5074B044613B11B
:1014B0000021AFF30080054B1868836A03B1984799
:1014C000204600F031F800BF000000004415000085
:1014D00070B50D4D0D4C641BA4100026A64209D119
:1014E0000B4D0C4C00F022F8641BA4100026A64201
:1014F00005D170BD55F8043B98470136EEE755F825
:10150000043B98470136F2E770000020700000208D
:10151000700000207400002002440346934200D172
:10152000704703F8011BF9E7FEE700BFF8B500BFFD
:10153000F8BC08BC9E467047F8B500BFF8BC08BCB4
:0C1540009E4670471000002000000000D4
:08154C00F0EBFF7F010000003D
:1015540000F0490200800000C0EA2101C0EA210134
:101564000000000000000000000000000000000077
:101574000000000000000000000000000000000067
:101584000000000000000000000000000000000057
:101594000000000000000000000000000000000047
:1015A4000000000000000000000000000000000037
:1015B4000000000000000000000000000000000027
:0815C40021010000FD00000000
:04000003000001B93F
:00000001FF
